:100000000C94B5000C94DD000C94DD000C94DD0024
:100010000C94DD000C94DD000C94DD000C94DD00EC
:100020000C94DD000C94DD000C94B7060C942607AC
:100030000C94DD000C94DD000C94DD000C94DD00CC
:100040000C94DD000C94DD000C94DD000C94DD00BC
:100050000C94DD000C94DD000C94DD000C946D0616
:100060000C94DD000C94DD000C94DD000C94DD009C
:100070000C94DD000C94DD000C94DD000C94DD008C
:100080000C94DD000C94DD000C94DD000C94DD007C
:100090000C94DD000C94DD000C94DD000C94DD006C
:1000A0000C94DD000C94DD000C94DD0006C0FF0A0A
:1000B000000CA1017508150026FF0095400901817B
:1000C00002954009029102C0080B000202020000E2
:1000D00009040000010202000005240010010524AB
:1000E000010101042402060524060001070581031D
:1000F00010004009040100020A0000000705020286
:1001000040000007058302400000040309041201B7
:100110000002EF0201404123368000010102030189
:1001200041726475696E6F204C4C43004172647576
:10013000696E6F204C656F6E6172646F0005010916
:1001400002A101850105091901290815002501955C
:100150000875018102050109300931093815812529
:100160007F750895038106C0520911241FBECFEF89
:10017000DAE0DEBFCDBF11E0A0E0B1E0EAE4F7E1F4
:1001800002C005900D92A836B107D9F722E0A8E683
:10019000B1E001C01D92AE36B207E1F710E0C5EB49
:1001A000D0E004C02197FE010E949D0BC43BD10703
:1001B000C9F70E94270A0C94A30B0C940000FC01C1
:1001C0008091D001882311F13FB7F89482E08093A9
:1001D000E9002091F200822F90E01816190614F41D
:1001E00081E090E0882339F0289844E64093CF01DD
:1001F0004091F1004083222339F02091F200211137
:1002000003C02BE62093E8003FBF08958FEF9FEFD8
:100210000895CF93DF931F92CDB7DEB76983DC01DA
:10022000ED91FC910280F381E02D41E050E0BE01B0
:100230006F5F7F4F09950F90DF91CF91089583E015
:100240008093E9008091F200882319F08AE380937B
:10025000E8000895CF93DF931F92CDB7DEB7FC017E
:100260008485958597FD08C02FEF3FEF358724875C
:100270000F90DF91CF910895CE0101960E94DF008B
:10028000019719F4898190E0F3CF8FEF9FEFF0CFC2
:100290000F931F93CF93DF931F92CDB7DEB78C01DF
:1002A000FC018485958597FF0BC0CE0101960E94C5
:1002B000DF00019771F4898190E0F80195878487C8
:1002C000F801848595850F90DF91CF911F910F9153
:1002D00008958FEF9FEFF1CFFC018485958597FD01
:1002E0000BC09FB7F89482E08093E9008091F20000
:1002F0009FBF90E0019608959FB7F89482E08093A5
:10030000E9008091F2009FBF90E008953FB7F89414
:100310008091CB019091CC01A091CD01B091CE0103
:1003200026B5A89B05C02F3F19F00196A11DB11D50
:100330003FBFBA2FA92F982F8827BC01CD01620F8C
:10034000711D811D911D42E0660F771F881F991F47
:100350004A95D1F70895CF92DF92EF92FF920E94D3
:1003600086016B017C010E9486016C197D098E0952
:100370009F09683E734081059105A8F3FF90EF90B7
:10038000DF90CF90089540917601509177012091B0
:1003900074013091750142175307B4F49091E8004D
:1003A0009570E1F39091E80092FD19C08093F100FF
:1003B000809176019091770101968F739927892B0F
:1003C00019F48EEF8093E800809176019091770187
:1003D0000196909377018093760181E0089580E003
:1003E0000895EF92FF920F931F93CF93DF93F82E10
:1003F000192FE62E042F81E0860F880F0E94C3017B
:1004000083E00E94C301CF2DD12FEC0EFD2EF11CF5
:10041000CE15DF05B9F007FF13C0FE0184910E94DD
:10042000C301182F80E00E94C3018123219681110E
:10043000EFCFDF91CF911F910F91FF90EF90089533
:100440008881EDCF81E0F5CFDF92EF92FF920F939D
:100450001F93CF93DF93D82E8A01EB017B01E40E2B
:10046000F51ECE15DF0559F0D7FE12C0FE018491AE
:100470000E94C30121968111F4CF0FEF1FEFC80135
:10048000DF91CF911F910F91FF90EF90DF90089532
:100490008881EECF2FB7F89487708093E900909110
:1004A000E800892F807295FF04C09091F20080E4EB
:1004B000891B2FBF089583E00E944A0290E00895AF
:1004C0007F928F929F92AF92BF92CF92DF92EF92E4
:1004D000FF920F931F93CF93DF93C82E8B017A0166
:1004E0008091D001811110C08FEF9FEFDF91CF91EC
:1004F0001F910F91FF90EF90DF90CF90BF90AF9042
:100500009F908F907F90089580917A0180FF05C021
:100510008091E00082608093E000CE2DDF2DD12C11
:100520008AEFB82E8C2D8770982E8C2D8072882E95
:100530008C2D8074782E9AE3A92E209719F4DD2053
:1005400009F44EC08C2D0E944A02811106C0BA9453
:10055000BB2051F20E94AB01F0CF8C171D0611F0A9
:100560000CF08C2F9FB7F8949092E9002091E8004E
:1005700025FD02C09FBFE1CF282F30E0C21BD30B67
:10058000882029F08150A0F01092F100FBCFF801F3
:10059000C7FC0AC0815050F041914093F100FACF5E
:1005A00044914093F10031968150D0F7020F131F10
:1005B000DD2021F0A092E800D12CDCCF8091E80072
:1005C00085FD07C0A092E800DD24D394209791F226
:1005D000F3CF209779F6772069F2A092E800CACF8E
:1005E0005D9884E680937901C70180CFCF93DF9334
:1005F000EC0180911201882331F083E00E946002B7
:100600001816190634F081E090E09B838A8380E01D
:1006100090E0DF91CF910895615030F02091F1008A
:10062000FC0120830196F8CF289884E68093CF01BF
:100630000895AF92BF92DF92EF92FF920F931F93B4
:10064000CF93DF935C018B01EB019BEFD92E2097B9
:10065000C1F07E01C134D1051CF080E4E82EF12CFC
:100660008091E80082FFFCCFC8018C1B9D0B6E2D92
:100670008A0D9B1D0E940C03D092E800CE19DF0961
:10068000E6CFC801DF91CF911F910F91FF90EF90BE
:10069000DF90BF90AF900895AF92BF92CF92DF925C
:1006A000EF92FF920F931F93CF93DF936C017B0127
:1006B0008B01040F151FEB015E01AE18BF08C017B8
:1006C000D10759F06991D601ED91FC910190F0812B
:1006D000E02DC6010995892B79F7C501DF91CF91EE
:1006E0001F910F91FF90EF90DF90CF90BF90AF9050
:1006F000089580916C0181110DC082E080936801A2
:1007000084E08093690110926B0110926A0181E08C
:1007100080936C0188E691E008950F931F93CF9327
:10072000DF931F92CDB7DEB782E0898342E450E0C9
:1007300068EC70E080E80E9424020E947903DC01EA
:1007400012960D911C910115110589F0D801ED91BA
:10075000FC910280F381E02DBE016F5F7F4FC801E5
:10076000099597FD04C0F80100851185ECCF8981BA
:100770000F90DF91CF911F910F910895CF93DF9349
:10078000FC01DB01818114963C911497682F630F63
:100790007727771F683071059CF5C281D381209738
:1007A00039F5B383A283908112969C931297139686
:1007B0008C93139715968C911597890F808390E0F1
:1007C00080E0831708F52181C22FD0E0BE01605080
:1007D0007F4F16964D915C911797480F591FEA016C
:1007E0004881EB0148832F5F21830196EACFEA011C
:1007F0004885598541155105D1F7B987A887D3CFC9
:1008000080E0DF91CF91089581E0FBCFDC01FB0117
:1008100012962C911297848195812817190641F41C
:1008200091818081813A31F49D7F81E0913009F09E
:1008300080E008958132E1F79B3029F482811F9690
:100840008C9381E008959A3099F7828150968C9329
:10085000F8CFDC01FB0188E4808389E4818384E4B0
:1008600082831D969C911D979F709F5B93831D961D
:100870008D919C9124E0969587952A95E1F78F704C
:100880008F5B848385E00895EF92FF920F931F930F
:10089000CF93DF93FB012081213871F52381223230
:1008A00059F5DC0112964C912481358142171306CB
:1008B00019F5EC010B851C85F12CE12C01151105B6
:1008C00089F0F801448155816281738180E80E943A
:1008D00024028F3F980749F0E80EF91ED8010D91C8
:1008E0001C91ECCF81E08F87C701DF91CF911F91E1
:1008F0000F91FF90EF90089590E080E0F6CFCF93B6
:10090000DF93CDB7DEB769970FB6F894DEBF0FBEA1
:10091000CDBFFC01DB018C918F5F8C939E012D5F1D
:100920003F4F8DE0D9011D928A95E9F729E029838F
:1009300084E08A8391E09D8383E08E832A8721E28D
:100940002B879C879D879F8722E2288B27E02B8B14
:1009500025E02C8B8E8B20E430E0388F2F8B998F05
:1009600082818B8395858685998B8A8B838180682C
:100970008D8B49E150E0BE016F5F7F4F80E00E94A8
:10098000240269960FB6F894DEBF0FBECDBFDF918B
:10099000CF9108950F931F93CF93DF93EC01FB0149
:1009A0002A81848195812817190641F491818081DB
:1009B000813A31F49D7F81E0913049F080E007C0B9
:1009C0008132E1F79B3041F482818F8B81E0DF91AE
:1009D000CF911F910F9108959A3019F48381888FD8
:1009E000F5CF993059F7068117818381833081F4DF
:1009F00089A19AA10817190709F7B8018F8D98A145
:100A00000E94190389A19AA190689AA389A3DECFB5
:100A10008230A1F68B8D9C8D892B81F6898D9A8DE4
:100A2000801791075CF2801B910B2D8D3E8DB801D4
:100A3000820F931F0E9419031C8F0B8FC7CFFB01DE
:100A400020812138B1F42381223299F4DC011296FD
:100A50004C911297248135814217130651F421E0FD
:100A600057962C934CE150E06CEA70E080E80C94CF
:100A7000240290E080E00895CF93DF93CDB7DEB7F6
:100A800069970FB6F894DEBF0FBECDBFFC01DB0146
:100A90009C919F5F9C939E012D5F3F4F81E1D90107
:100AA0001D928A95E9F729E0298384E08A8391E001
:100AB0009D8383E08E832A8721E22B879C879D87F5
:100AC0009F8722E2288B2CE1298B27E02B8B25E0C6
:100AD0002C8B8E8B20E430E0388F2F8B998F828186
:100AE0008B83838180688D8B49E150E0BE016F5F0D
:100AF0007F4F80E00E94240269960FB6F894DEBF13
:100B00000FBECDBFDF91CF910895FC01838180643A
:100B10000C946002CF93DF931F92CDB7DEB7698349
:100B2000DC01ED91FC910288F389E02D41E050E079
:100B3000BE016F5F7F4F09950F90DF91CF910895B0
:100B40000A970C948A0508950895DC015B968D91AF
:100B50009C915C971816190674F459962D913C9146
:100B60005A97281B390B5D96ED91FC91E20FF31F0C
:100B7000808190E008958FEF9FEF08950A970C947D
:100B8000A505FC018189928997FF02C090E080E071
:100B90000895FC01838D948D97FF02C090E080E062
:100BA0000895FC0182818F5BFB01808381E00895C1
:100BB00090E080E00895CF92DF92EF92FF921F9332
:100BC000CF93DF931F92CDB7DEB77B016A0180918F
:100BD000550281112CC011E0109348021093490274
:100BE0008EE492E090934B0280934A0210924D0261
:100BF00010924C028AE591E0909345028093440262
:100C00001092500210924F02109252021092510212
:100C1000109353021093540281EC80934E020E9471
:100C2000790364E472E00E94BE031093550281E0F0
:100C3000898341E050E0BE016F5F7F4F80914702A2
:100C40000E94600297FD07C080914702A601B7018C
:100C500080640E9460020F90DF91CF911F91FF90FE
:100C6000EF90DF90CF900895CF93DF9300D000D026
:100C7000CDB7DEB790916D0299838A836B834C83E5
:100C800044E050E0BE016F5F7F4F8BE692E00E9430
:100C9000DB050F900F900F900F90DF91CF9108958B
:100CA000FC01438D548D141615068CF4858D968D9C
:100CB000218D328DBA0161507109748F638FF901F2
:100CC000E41BF50BE80FF91F808190E008958FEF8A
:100CD0009FEF08950A970C9450061F920F920FB63B
:100CE0000F9211242F933F938F939F93AF93BF93B2
:100CF0008091C7019091C801A091C901B091CA012A
:100D00003091C60123E0230F2D3758F50196A11D20
:100D1000B11D2093C6018093C7019093C801A09391
:100D2000C901B093CA018091CB019091CC01A091EF
:100D3000CD01B091CE010196A11DB11D8093CB01D3
:100D40009093CC01A093CD01B093CE01BF91AF9110
:100D50009F918F913F912F910F900FBE0F901F90F9
:100D6000189526E8230F0296A11DB11DD2CF1F9220
:100D70000F920FB60F9211248F939F938091E100F1
:100D80009091E100937F9093E10083FF0FC0109258
:100D9000E90091E09093EB001092EC0092E39093C5
:100DA000ED001092D00198E09093F00082FF22C0F5
:100DB00093E09093E9009091F200992319F09AE35F
:100DC0009093E80090917901992341F090917901F5
:100DD000915090937901911101C05D9A9091CF014A
:100DE000992341F09091CF0191509093CF019111AF
:100DF00001C0289A84FF18C08091E2008E7E816035
:100E00008093E2008091E1008F7E8093E1008091E9
:100E10007A018E7E806180937A019F918F910F90ED
:100E20000FBE0F901F90189580FFF7CF8091E200C2
:100E30008E7E80618093E2008091E1008E7E8093BF
:100E4000E10080917A018E7E8160E5CF1F920F9242
:100E50000FB60F921124CF92DF92EF92FF920F9371
:100E60001F932F933F934F935F936F937F938F9332
:100E70009F93AF93BF93EF93FF93CF93DF93CDB740
:100E8000DEB76C97DEBFCDBF1092E9008091E8001D
:100E900083FF25C068E0CE0145960E940C0382EFD7
:100EA0008093E8008D8987FF39C09091E80090FF1A
:100EB000FCCF982F907609F034C19E894F89588DC8
:100EC0002F89F88C911131C0803861F580917B01B8
:100ED0008093F1001092F1008EEF8093E8006C9601
:100EE0000FB6F894DEBF0FBECDBFDF91CF91FF915B
:100EF000EF91BF91AF919F918F917F916F915F9192
:100F00004F913F912F911F910F91FF90EF90DF90A4
:100F1000CF900F900FBE0F901F9018959EEF90935B
:100F2000E800C7CF1092F100D5CF913059F481116C
:100F3000D3CF4130510581F680917B018D7F809325
:100F40007B01CACF933049F48111C6CF413051059E
:100F500019F680917B018260F2CF953041F4809147
:100F6000E80080FFFCCF20682093E300B5CF9630E7
:100F700009F0A9C00B8D1C8D22E01092E90010929F
:100F8000770110927601F2122EC010927501109224
:100F900074010E948D031F8299E09983FA8291E087
:100FA0009E8390EA98879AEF9987209176013091F5
:100FB0007701275F3F4F3C832B838D831092E9009D
:100FC00010927701109276011093750100937401CD
:100FD00049E050E0BE016F5F7F4F80E00E94240235
:100FE0000E948D0379CF10937501009374010E94C4
:100FF0007903DC0112960D911C910115110509F47C
:101000004BC1D801ED91FC910480F581E02DBE012A
:101010006B5E7F4FC8010995009709F038C1F80150
:1010200000851185EACFF3E0FF120EC08F89882377
:1010300009F440C0823061F440E860E18CE291E064
:101040000E94F101811148CF81E28093EB0047CFEC
:10105000813029F440E86BE080E291E0F1CF833009
:1010600099F70E947903DC011296ED90FC908E01B5
:101070000F5F1F4F6801E114F10479F0D701ED9182
:10108000FC910680F781E02DB801C7010995080F92
:10109000111DF701E084F184EECFD8011C92F60116
:1010A00001900020E9F73197BF016C197D0940E0FC
:1010B000C601C6CF6AE071E0FB01449150E080E8D0
:1010C0000E94240209CF973009F4BECF983021F452
:1010D00081E08093F10000CF993009F0FDCE83705C
:1010E00009F0B2CFE1E0F1E081E031E096E3219157
:1010F000222371F08093E9003093EB00DF01119718
:101100002C912093EC009093ED008F5F873079F75E
:101110008EE78093EA001092EA008F898093D001D5
:10112000DBCE8B8D9C8D1092E9001092770110928E
:1011300076019093750180937401898D81118CC023
:101140008E899D89913A49F4813209F07DCF47E03B
:1011500050E06BE071E080E0B3CF913209F074CFE2
:10116000833269F48F89988DB0E0A0E08093070105
:1011700090930801A0930901B0930A01ADCE80328B
:1011800039F467E070E08BE091E00E941903A4CE8F
:10119000823209F0A1CE8F8980931201EEEFFFE732
:1011A000859194918B3F9C4D51F1E0E0F8E0809166
:1011B0000B0190910C01A0910D01B0910E01803BAB
:1011C0009440A105B105F1F48091120180FD1AC08F
:1011D000EE3F8AE0F80789F587E797E791838083F8
:1011E000809160008093780188E19BE00FB6F894CD
:1011F000A895809360000FBE909360006DCEEEEFD7
:10120000FAE0D5CF808191818737974709F064CE86
:10121000A89580916000886180936000809178013A
:1012200080936000EE3F2AE0F20789F08091FE0A89
:101230009091FF0A918380834FCE8081918187377F
:10124000980751F29093FF0A8093FE0AC5CF10923F
:10125000FF0A1092FE0A40CE0E947903DC0112962A
:101260000D911C910115110509F4EECED801ED91F7
:10127000FC910190F081E02DBE016B5E7F4FC801B3
:101280000995811129CEF80100851185EBCF18163B
:1012900019060CF421CED8CEF1E0FF12C4CE6EE0D8
:1012A00071E00ACFCF931092D4011092D30188EE4F
:1012B00093E0A0E0B0E08093D5019093D601A09395
:1012C000D701B093D8012EE131E03093D2012093C1
:1012D000D1012FEF3FEF3093DE012093DD01C1E01C
:1012E000C0932502C093260227E332E03093280200
:1012F0002093270210922A021092290210922E02A5
:1013000010922D0280932F0290933002A09331020D
:10131000B093320280E391E0909322028093210205
:1013200088E491E090932C0280932B02C0933802C2
:10133000C093390210923B0210923A0210923D0281
:1013400010923C021092410210924002109243020D
:101350001092420281EC809337020E94790361E28D
:1013600072E00E94BE0310926D0286E691E09093B7
:101370006C0280936B0280916302811112C0109203
:101380005E0210925D028DE391E090936002809383
:101390005F028BE290E09093620280936102C093BF
:1013A00063028091550281112CC0C1E0C0934802B4
:1013B000C09349028EE492E090934B0280934A02DC
:1013C00010924D0210924C028AE591E090934502F2
:1013D000809344021092500210924F0210925202D7
:1013E00010925102C0935302C093540281EC809337
:1013F0004E020E94790364E472E00E94BE03C0932F
:101400005502E0914F02F09150023097B9F48DE50A
:1014100092E09093500280934F02809151029091FC
:1014200052022091610230916202820F931F9093C9
:10143000520280935102CF910895FC0180819181E5
:101440000097D9F78DE592E091838083E6CF789479
:1014500084B5826084BD84B5816084BD85B58260B9
:1014600085BD85B5816085BD80916E00816080936A
:101470006E001092810080918100826080938100D3
:1014800080918100816080938100809180008160E3
:101490008093800080919100826080939100809180
:1014A0009100816080939100809190008160809391
:1014B00090008091C10084608093C1008091C10040
:1014C00082608093C1008091C10081608093C100DF
:1014D0008091C30081608093C3008091C0008260CE
:1014E0008093C0008091C20081608093C20080918F
:1014F0007A00846080937A0080917A008260809381
:101500007A0080917A00816080937A0080917A00DD
:10151000806880937A001092D00110927B01109223
:101520007A018091D70081608093D70080EA809310
:10153000D80089B5806189BD89B5826089BD09B44B
:1015400000FEFDCF0E94AB018091D8008F7C8061AE
:101550008093D8008091E000807F8093E0008091AC
:10156000E1008E7E8093E1008DE08093E200559A49
:10157000209A10926D0240E060E080E00E94340604
:101580008CE791E090933F0280933E0280E490E0EC
:1015900090933B0280933A0210923D0210923C02DB
:1015A00020E0E22E20E0F22ED1E000913C021091EA
:1015B0003D0217FDBBC00150110908F4B7C081E21C
:1015C00092E00E94500697FDF6CFE091C501E1112F
:1015D00007C0853A81F7D093C5018093BD01EBCF59
:1015E00091E09E0F9093C501F0E0E354FE4F80839D
:1015F000983008F38091BD01853AE9F48091C401E7
:101600008A35C9F48091BE01813009F03FC0A090B5
:10161000BF01B090C001BA24AB24BA24C090C1016C
:10162000D090C201DC24CD24DC24A114B10431F417
:10163000C114D10481F41092C501BDCF9FE7992E4A
:1016400080E8A816B10444F481E8982E81E8A81631
:101650008FEFB8060CF09A2CCFE780E8C816D104BB
:101660003CF4CC2D81E8C8168FEFD8060CF4C1E805
:1016700040E06C2F892D0E943406A918B10897FC10
:10168000B394CC1AD108C7FDD394CFCF823009F0E0
:1016900043C0E091BF01E150E33068F6F0E0ED5E59
:1016A000FE4FC081CC2339F2EFEFEC0FE43018F697
:1016B000F0E0EA5EFE4F8081882309F4BCCFD09031
:1016C000BC019C2F9D212091C001222391F09111FA
:1016D000B2CF90916D02892B981739F080936D02EB
:1016E00040E060E080E00E943406CD29C093BC0158
:1016F000A2CF992309F49FCF90916D028095892301
:10170000981739F080936D0240E060E080E00E941D
:101710003406C095CD21EACF833009F08CCF4091BB
:10172000BF0160E080E00E94340685CFE114F1043F
:1017300009F43BCF0E94000038CFEE0FFF1F059049
:0A174000F491E02D0994F894FFCF16
:10174A0000C18081000000FFFFFFFF00E1000000F0
:10175A000000000102040102000400000000090167
:10176A00F6025B021F016C012A0148010000000019
:10177A00CA043C051F05D105C9055006A505A405DF
:10178A008A058505F6FF0000A0054C03D805A305C8
:10179A00C1056A06BE050000000006047F04440471
:0817AA00290400000000DB052A
:00000001FF
