:100000000C94BB000C94E3000C94E3000C94E3000C
:100010000C94E3000C94E3000C94E3000C94E300D4
:100020000C94E3000C94E3000C949E060C940D07D2
:100030000C94E3000C94E3000C94E3000C94E300B4
:100040000C94E3000C94E3000C94E3000C94E300A4
:100050000C94E3000C94E3000C94E3000C9454061D
:100060000C94E3000C94E3000C94E3000C94E30084
:100070000C94E3000C94E3000C94E3000C94E30074
:100080000C94E3000C94E3000C94E3000C94E30064
:100090000C94E3000C94E3000C94E3000C94E30054
:1000A0000C94E3000C94E3000C94E30006C0FF0AF8
:1000B000000CA1017508150026FF0095400901817B
:1000C00002954009029102C0080B000202020000E2
:1000D00009040000010202000005240010010524AB
:1000E000010101042402060524060001070581031D
:1000F00010004009040100020A0000000705020286
:1001000040000007058302400000040309041201B7
:100110000002EF0201404123368000010102030189
:1001200041726475696E6F204C4C43004172647576
:10013000696E6F204C656F6E6172646F0005010916
:1001400002A1010901A10085010509190129031571
:10015000002501950375018102950175058103054F
:10016000010930093109381581257F75089503810A
:1001700006C0C000390911241FBECFEFDAE0DEBF90
:10018000CDBF11E0A0E0B1E0EAEEF6E102C00590DB
:100190000D92AE35B107D9F722E0AEE5B1E001C06E
:1001A0001D92AD35B207E1F710E0CBEBD0E004C013
:1001B0002197FE010E946D0BCA3BD107C9F70E942F
:1001C000090A0C94730B0C940000FC018091C5018A
:1001D000882311F13FB7F89482E08093E9002091E1
:1001E000F200822F90E01816190614F481E090E0D6
:1001F000882339F0289844E64093C4014091F100E7
:100200004083222339F02091F200211103C02BE614
:100210002093E8003FBF08958FEF9FEF0895CF939D
:10022000DF931F92CDB7DEB76983DC01ED91FC91BE
:100230000280F381E02D41E050E0BE016F5F7F4F0F
:1002400009950F90DF91CF91089583E08093E900A5
:100250008091F200882319F08AE38093E8000895E2
:10026000CF93DF931F92CDB7DEB7FC0184859585D0
:1002700097FD08C02FEF3FEF358724870F90DF9160
:10028000CF910895CE0101960E94E500019719F4DF
:10029000898190E0F3CF8FEF9FEFF0CF0F931F9303
:1002A000CF93DF931F92CDB7DEB78C01FC0184851D
:1002B000958597FF0BC0CE0101960E94E50001973E
:1002C00071F4898190E0F80195878487F80184852D
:1002D00095850F90DF91CF911F910F9108958FEF2A
:1002E0009FEFF1CFFC018485958597FD0BC09FB7EB
:1002F000F89482E08093E9008091F2009FBF90E043
:10030000019608959FB7F89482E08093E900809168
:10031000F2009FBF90E008953FB7F8948091C0012C
:100320009091C101A091C201B091C30126B5A89BD3
:1003300005C02F3F19F00196A11DB11D3FBFBA2F77
:10034000A92F982F8827BC01CD01620F711D811D37
:10035000911D42E0660F771F881F991F4A95D1F7BC
:100360000895CF92DF92EF92FF920E948C016B0171
:100370007C010E948C016C197D098E099F09683EE1
:10038000734081059105A8F3FF90EF90DF90CF9027
:10039000089540916C0150916D0120916A01309156
:1003A0006B0142175307B4F49091E8009570E1F3A4
:1003B0009091E80092FD19C08093F10080916C014A
:1003C00090916D0101968F739927892B19F48EEF07
:1003D0008093E80080916C0190916D01019690935B
:1003E0006D0180936C0181E0089580E00895EF92A3
:1003F000FF920F931F93CF93DF93F82E192FE62EC2
:10040000042F81E0860F880F0E94C90183E00E94BB
:10041000C901CF2DD12FEC0EFD2EF11CCE15DF051D
:10042000B9F007FF13C0FE0184910E94C901182F83
:1004300080E00E94C901812321968111EFCFDF91D5
:10044000CF911F910F91FF90EF9008958881EDCF8C
:1004500081E0F5CFDF92EF92FF920F931F93CF933E
:10046000DF93D82E8A01EB017B01E40EF51ECE1539
:10047000DF0559F0D7FE12C0FE0184910E94C90128
:1004800021968111F4CF0FEF1FEFC801DF91CF91BB
:100490001F910F91FF90EF90DF9008958881EECF2C
:1004A0002FB7F89487708093E9009091E800892F26
:1004B000807295FF04C09091F20080E4891B2FBFE9
:1004C000089583E00E94500290E008957F928F92F9
:1004D0009F92AF92BF92CF92DF92EF92FF920F93D3
:1004E0001F93CF93DF93C82E8B017A018091C501B2
:1004F000811110C08FEF9FEFDF91CF911F910F916E
:10050000FF90EF90DF90CF90BF90AF909F908F9033
:100510007F9008958091700180FF05C08091E00078
:1005200082608093E000CE2DDF2DD12C8AEFB82E93
:100530008C2D8770982E8C2D8072882E8C2D807437
:10054000782E9AE3A92E209719F4DD2009F44EC0E5
:100550008C2D0E945002811106C0BA94BB2051F22A
:100560000E94B101F0CF8C171D0611F00CF08C2FFA
:100570009FB7F8949092E9002091E80025FD02C011
:100580009FBFE1CF282F30E0C21BD30B882029F07A
:100590008150A0F01092F100FBCFF801C7FC0AC017
:1005A000815050F041914093F100FACF4491409333
:1005B000F10031968150D0F7020F131FDD2021F09A
:1005C000A092E800D12CDCCF8091E80085FD07C027
:1005D000A092E800DD24D394209791F2F3CF2097E6
:1005E00079F6772069F2A092E800CACF5D9884E698
:1005F00080936F01C70180CFCF93DF93EC0180918F
:100600001201882331F083E00E9466021816190651
:1006100034F081E090E09B838A8380E090E0DF917A
:10062000CF910895615030F02091F100FC012083BA
:100630000196F8CF289884E68093C4010895AF927C
:10064000BF92DF92EF92FF920F931F93CF93DF93AE
:100650005C018B01EB019BEFD92E2097C1F07E014D
:10066000C134D1051CF080E4E82EF12C8091E80023
:1006700082FFFCCFC8018C1B9D0B6E2D8A0D9B1D2C
:100680000E941203D092E800CE19DF09E6CFC8011C
:10069000DF91CF911F910F91FF90EF90DF90BF906E
:1006A000AF900895AF92BF92CF92DF92EF92FF92F8
:1006B0000F931F93CF93DF936C017B018B01040F8A
:1006C000151FEB015E01AE18BF08C017D10759F026
:1006D0006991D601ED91FC910190F081E02DC60168
:1006E0000995892B79F7C501DF91CF911F910F9162
:1006F000FF90EF90DF90CF90BF90AF9008958091E2
:10070000620181110DC082E080935E0184E08093DC
:100710005F01109261011092600181E0809362019B
:100720008EE591E008950F931F93CF93DF931F926F
:10073000CDB7DEB782E0898342E450E068EC70E038
:1007400080E80E942A020E947F03DC0112960D912C
:100750001C910115110589F0D801ED91FC910280E1
:10076000F381E02DBE016F5F7F4FC801099597FDB2
:1007700004C0F80100851185ECCF89810F90DF91CD
:10078000CF911F910F910895CF93DF93FC01DB016F
:10079000818114963C911497682F630F7727771FF8
:1007A000683071059CF5C281D381209739F5B383F8
:1007B000A283908112969C93129713968C93139711
:1007C00015968C911597890F808390E080E08317B0
:1007D00008F52181C22FD0E0BE0160507F4F1696F0
:1007E0004D915C911797480F591FEA014881EB0121
:1007F00048832F5F21830196EACFEA014885598516
:1008000041155105D1F7B987A887D3CF80E0DF9193
:10081000CF91089581E0FBCF1F93CF93DF9300D05A
:1008200000D01F92CDB7DEB790913D0299838A83A5
:100830006B834C838091270281112CC011E01093AF
:100840001A0210931B0280E292E090931D028093A3
:100850001C0210921F0210921E028CE291E09093F3
:100860001702809316021092220210922102109217
:10087000240210922302109325021093260281EC89
:10088000809320020E947F0366E172E00E94C4030D
:100890001093270281E08D8341E050E0BE016B5F41
:1008A0007F4F809119020E94660297FD0AC08091D5
:1008B000190244E050E0BE016F5F7F4F80640E94E8
:1008C00066020F900F900F900F900F90DF91CF91D5
:1008D0001F910895DC01FB0112962C9112978481DF
:1008E00095812817190641F491818081813A31F46C
:1008F0009D7F81E0913009F080E008958132E1F739
:100900009B3029F482811F968C9381E008959A3060
:1009100099F7828150968C93F8CFDC01FB0188E433
:10092000808389E4818384E482831D969C911D9752
:100930009F709F5B93831D968D919C9124E096956B
:1009400087952A95E1F78F708F5B848385E0089502
:10095000EF92FF920F931F93CF93DF93FB012081C0
:10096000213871F52381223259F5DC0112964C9120
:10097000248135814217130619F5EC010B851C857E
:10098000F12CE12C0115110589F0F8014481558104
:100990006281738180E80E942A028F3F980749F0A4
:1009A000E80EF91ED8010D911C91ECCF81E08F87E4
:1009B000C701DF91CF911F910F91FF90EF900895A4
:1009C00090E080E0F6CFCF93DF93CDB7DEB76997A5
:1009D0000FB6F894DEBF0FBECDBFFC01DB018C91DA
:1009E0008F5F8C939E012D5F3F4F8DE0D9011D924B
:1009F0008A95E9F729E0298384E08A8391E09D8341
:100A000083E08E832A8721E22B879C879D879F879F
:100A100022E2288B27E02B8B25E02C8B8E8B20E489
:100A200030E0388F2F8B998F82818B8395858685D7
:100A3000998B8A8B838180688D8B49E150E0BE0160
:100A40006F5F7F4F80E00E942A0269960FB6F8948C
:100A5000DEBF0FBECDBFDF91CF9108950F931F93DF
:100A6000CF93DF93EC01DB012A8114968D919C9149
:100A700015972817190659F411968C9111979C9186
:100A8000913A39F4982F9D7F81E0913051F080E0C8
:100A900008C09132E1F78B3049F412968C918F8B1C
:100AA00081E0DF91CF911F910F9108958A3021F459
:100AB00013968C91888FF4CF893049F713968C91D7
:100AC0001397823021F78B8D9C8D892B01F7169619
:100AD0000D911C91898D9A8D80179107C4F2801B0E
:100AE000910B2D8D3E8DB801820F931F0E941F0325
:100AF0001C8F0B8FD5CFFB0120812138B1F42381CE
:100B0000223299F4DC0112964C911297248135819E
:100B10004217130651F421E057962C934CE150E014
:100B20006CEA70E080E80C942A0290E080E008957E
:100B3000CF93DF93CDB7DEB769970FB6F894DEBFDA
:100B40000FBECDBFFC01DB019C919F5F9C939E017A
:100B50002D5F3F4F81E1D9011D928A95E9F729E088
:100B6000298384E08A8391E09D8383E08E832A87B2
:100B700021E22B879C879D879F8722E2288B2CE18F
:100B8000298B27E02B8B25E02C8B8E8B20E430E00B
:100B9000388F2F8B998F82818B83838180688D8B97
:100BA00049E150E0BE016F5F7F4F80E00E942A0262
:100BB00069960FB6F894DEBF0FBECDBFDF91CF911F
:100BC0000895FC01838180640C946602CF93DF93C7
:100BD0001F92CDB7DEB76983DC01ED91FC910288ED
:100BE000F389E02D41E050E0BE016F5F7F4F099532
:100BF0000F90DF91CF9108950A970C94E605089520
:100C00000895DC015B968D919C915C9718161906EE
:100C100074F459962D913C915A97281B390B5D9687
:100C2000ED91FC91E20FF31F808190E008958FEF2A
:100C30009FEF08950A970C940106FC01438D548D93
:100C4000141615068CF4858D968D218D328DBA0182
:100C500061507109748F638FF901E41BF50BE80F84
:100C6000F91F808190E008958FEF9FEF08950A9714
:100C70000C941D06FC018189928997FF02C090E0C7
:100C800080E00895FC01838D948D97FF02C090E071
:100C900080E00895FC0182818F5BFB01808381E00D
:100CA000089590E080E008951F920F920FB60F9282
:100CB00011242F933F938F939F93AF93BF93809172
:100CC000BC019091BD01A091BE01B091BF013091D6
:100CD000BB0123E0230F2D3758F50196A11DB11D4F
:100CE0002093BB018093BC019093BD01A093BE01F2
:100CF000B093BF018091C0019091C101A091C20148
:100D0000B091C3010196A11DB11D8093C0019093C4
:100D1000C101A093C201B093C301BF91AF919F9154
:100D20008F913F912F910F900FBE0F901F901895AC
:100D300026E8230F0296A11DB11DD2CF1F920F925C
:100D40000FB60F9211248F939F938091E1009091A1
:100D5000E100937F9093E10083FF0FC01092E900C0
:100D600091E09093EB001092EC0092E39093ED00F1
:100D70001092C50198E09093F00082FF22C093E0AA
:100D80009093E9009091F200992319F09AE39093DF
:100D9000E80090916F01992341F090916F0191507B
:100DA00090936F01911101C05D9A9091C4019923B4
:100DB00041F09091C40191509093C401911101C0F0
:100DC000289A84FF18C08091E2008E7E8160809313
:100DD000E2008091E1008F7E8093E10080917001BC
:100DE0008E7E8061809370019F918F910F900FBED6
:100DF0000F901F90189580FFF7CF8091E2008E7EB4
:100E000080618093E2008091E1008E7E8093E1001A
:100E1000809170018E7E8160E5CF1F920F920FB698
:100E20000F921124CF92DF92EF92FF920F931F93B4
:100E30002F933F934F935F936F937F938F939F93E2
:100E4000AF93BF93EF93FF93CF93DF93CDB7DEB70D
:100E50006C97DEBFCDBF1092E9008091E80083FF60
:100E600025C068E0CE0145960E94120382EF809370
:100E7000E8008D8987FF39C09091E80090FFFCCF92
:100E8000982F907609F034C19E894F89588D2F890B
:100E9000F88C911131C0803861F580917101809397
:100EA000F1001092F1008EEF8093E8006C960FB67F
:100EB000F894DEBF0FBECDBFDF91CF91FF91EF91D0
:100EC000BF91AF919F918F917F916F915F914F9162
:100ED0003F912F911F910F91FF90EF90DF90CF9056
:100EE0000F900FBE0F901F9018959EEF9093E80003
:100EF000C7CF1092F100D5CF913059F48111D3CFE3
:100F00004130510581F6809171018D7F809371018F
:100F1000CACF933049F48111C6CF4130510519F63B
:100F2000809171018260F2CF953041F48091E800A8
:100F300080FFFCCF20682093E300B5CF963009F006
:100F4000A9C00B8D1C8D22E01092E90010926D015A
:100F500010926C01F2122EC010926B0110926A0175
:100F60000E9493031F8299E09983FA8291E09E8305
:100F700090EA98879AEF998720916C0130916D01E2
:100F8000275F3F4F3C832B838D831092E9001092A3
:100F90006D0110926C0110936B0100936A0149E09E
:100FA00050E0BE016F5F7F4F80E00E942A020E94E6
:100FB000930379CF10936B0100936A010E947F0322
:100FC000DC0112960D911C910115110509F44BC11C
:100FD000D801ED91FC910480F581E02DBE016B5E9E
:100FE0007F4FC8010995009709F038C1F8010085C5
:100FF0001185EACFF3E0FF120EC08F89882309F430
:1010000040C0823061F440E860E18CE291E00E94EF
:10101000F701811148CF81E28093EB0047CF813007
:1010200029F440E86BE080E291E0F1CF833099F75A
:101030000E947F03DC011296ED90FC908E010F5F01
:101040001F4F6801E114F10479F0D701ED91FC9193
:101050000680F781E02DB801C7010995080F111D21
:10106000F701E084F184EECFD8011C92F6010190E3
:101070000020E9F73197BF016C197D0940E0C601F6
:10108000C6CF6AE071E0FB01449150E080E80E9425
:101090002A0209CF973009F4BECF983021F481E0BD
:1010A0008093F10000CF993009F0FDCE837009F0F4
:1010B000B2CFE1E0F1E081E031E096E3219122233B
:1010C00071F08093E9003093EB00DF0111972C91D0
:1010D0002093EC009093ED008F5F873079F78EE7D7
:1010E0008093EA001092EA008F898093C501DBCEDD
:1010F0008B8D9C8D1092E90010926D0110926C0105
:1011000090936B0180936A01898D81118CC08E89C7
:101110009D89913A49F4813209F07DCF47E050E052
:101120006BE071E080E0B3CF913209F074CF83328D
:1011300069F48F89988DB0E0A0E0809307019093C7
:101140000801A0930901B0930A01ADCE803239F4B1
:1011500067E070E08BE091E00E941F03A4CE823232
:1011600009F0A1CE8F8980931201EEEFFFE7859100
:1011700094918B3F9C4D51F1E0E0F8E080910B01A0
:1011800090910C01A0910D01B0910E01803B944013
:10119000A105B105F1F48091120180FD1AC0EE3F66
:1011A0008AE0F80789F587E797E791838083809144
:1011B000600080936E0188E19BE00FB6F894A895DB
:1011C000809360000FBE909360006DCEEEEFFAE06A
:1011D000D5CF808191818737974709F064CEA89554
:1011E0008091600088618093600080916E0180939F
:1011F0006000EE3F2AE0F20789F08091FE0A9091AC
:10120000FF0A918380834FCE808191818737980731
:1012100051F29093FF0A8093FE0AC5CF1092FF0A05
:101220001092FE0A40CE0E947F03DC0112960D91BF
:101230001C910115110509F4EECED801ED91FC9138
:101240000190F081E02DBE016B5E7F4FC8010995D2
:10125000811129CEF80100851185EBCF18161906EA
:101260000CF421CED8CEF1E0FF12C4CE6EE071E0D6
:101270000ACFCF931092C9011092C80188EE93E073
:10128000A0E0B0E08093CA019093CB01A093CC0181
:10129000B093CD018AE191E09093C7018093C6019C
:1012A0008FEF9FEF9093D3018093D20110923D0274
:1012B00080913502811113C01092300210922F02DA
:1012C0008DE391E0909332028093310286E390E0C7
:1012D000909334028093330281E0809335028091B1
:1012E000270281112CC0C1E0C0931A02C0931B02D7
:1012F00080E292E090931D0280931C0210921F02E4
:1013000010921E028CE291E09093170280931602D5
:1013100010922202109221021092240210922302B3
:10132000C0932502C093260281EC809320020E9484
:101330007F0366E172E00E94C403C0932702E0913C
:101340002102F0912202309709F05AC08FE292E018
:101350009093220280932102809123029091240293
:101360002091330230913402820F931F9093240214
:101370008093230281E0809342028093430224E51C
:1013800032E03093450220934402109247021092BB
:10139000460210924B0210924A0248EE53E060E07F
:1013A00070E040934C0250934D0260934E02709354
:1013B0004F0228E331E030933F0220933E0220E5C4
:1013C00031E0309349022093480280935502809384
:1013D0005602109258021092570210925A0210921E
:1013E000590210925C0210925B0281EC80935402CD
:1013F0000E947F036EE372E0CF910C94C403FC0162
:10140000808191810097D9F78FE292E09183808368
:10141000A3CF789484B5826084BD84B5816084BD97
:1014200085B5826085BD85B5816085BD80916E0082
:10143000816080936E0010928100809181008260B3
:1014400080938100809181008160809381008091F0
:101450008000816080938000809191008260809301
:101460009100809191008160809391008091900023
:101470008160809390008091C10084608093C1005E
:101480008091C10082608093C1008091C100816021
:101490008093C1008091C30081608093C3008091DC
:1014A000C00082608093C0008091C2008160809300
:1014B000C20080917A00846080937A0080917A00E3
:1014C000826080937A0080917A00816080937A00B4
:1014D00080917A00806880937A001092C501109202
:1014E0007101109270018091D70081608093D700C4
:1014F00080EA8093D80089B5806189BD89B5826012
:1015000089BD09B400FEFDCF0E94B1018091D800D1
:101510008F7C80618093D8008091E000807F8093F1
:10152000E0008091E1008E7E8093E1008DE0809369
:10153000E200559A209A82E791E090935C028093B2
:101540005B0280E490E090935802809357021092DF
:101550005A021092590240E0E42E40E0F42EDD24BD
:10156000D3940091590210915A0217FDAFC0015057
:10157000110908F4ABC08EE392E00E941D0697FDAE
:10158000F6CFE091BA01E11107C0853A81F7D09218
:10159000BA018093B301EBCF91E09E0F9093BA0113
:1015A000F0E0ED54FE4F8083973008F38091B30153
:1015B000853AE1F48091B9018A35C1F48091B40192
:1015C000813009F03EC0A090B501B090B601BA24B8
:1015D000AB24BA24C091B701D091B801DC27CD2744
:1015E000DC27A114B10429F4209781F41092BA01E8
:1015F000BECF3FE7932E80E8A816B10444F421E85B
:10160000922E81E8A8168FEFB8060CF09A2C9FE76F
:10161000C92EC038D1053CF4CC2EC1388FEFD80785
:1016200014F481E8C82E40E06C2D892D0E940C0432
:10163000A918B10897FCB394CC19D109C7FCD3956C
:10164000D0CF8230C9F5E091B501E150E33070F6BA
:10165000F0E0ED5EFE4FC081CC2341F2D091B201AB
:101660008C2F8D239091B601992399F08111BECFD3
:1016700090913D028C2F892B981739F080933D0271
:1016800040E060E080E00E940C04CD2BC093B201EA
:10169000ADCF882309F4AACF90913D02C0958C2F3D
:1016A0008923981739F080933D0240E060E080E0A4
:1016B0000E940C04CD23EACF833009F097CF4091EC
:1016C000B50160E080E00E940C0490CFE114F104C9
:1016D00009F447CF0E94000044CFEE0FFF1F059092
:0A16E000F491E02D0994F894FFCF77
:1016EA0000C18081000000FFFFFFFF00E100000051
:1016FA00000000010204000000000F01FC02610268
:10170A002501720130014E01000000006A04E30461
:10171A00A8048D04000000002E0598057B054A06E2
:10172A0042061D0601060006E605E105F6FF000071
:0E173A00FC0552035106FF053A0637061A0653
:00000001FF
